:100000000C940C010C94C5090C94C5090C94C509F9
:100010000C944E080C94C5090C94C5090C94C509A0
:100020000C94C5090C94C5090C94C5090C94C50918
:100030000C94C5090C94C5090C94C5090C94C50908
:100040000C94C5090C94C5090C94C5090C94360987
:100050000C94C50901051A0533054C0564056405B2
:100060006405640564056405640564056405640548
:100070006405640564056405640564056405640538
:100080006405640564056405640564056405640528
:100090006405640501051A0533054C0571058A05DB
:1000A000A305BC05D405D405D405D405D405D405D1
:1000B000D405D405D405D405D405D405D405D40578
:1000C000D405D405D405D405D405D405D405D40568
:1000D000D405D405D405D405D405D40571058A0505
:1000E000A305BC05E405F9050E0623063706370609
:1000F0003706370637063706370637063706370618
:100100003706370637063706370637063706370607
:1001100037063706370637063706370637063706F7
:1001200037063706E405F9050E0623069C099E09E5
:10013000A009A209A309A309A309A309A309A30963
:10014000A309A309A309A309A309A309A309A3094F
:10015000A309A309A309A309A309A309A309A3093F
:10016000A309A309A309A309A309A3099C099E093B
:10017000A009A209AF09B109B309B509B609B609C1
:10018000B609B609B609B609B609B609B609B60977
:10019000B609B609B609B609B609B609B609B60967
:1001A000B609B609B609B609B609B609B609B60957
:1001B000B609B609AF09B109B309B509AE07BE075B
:1001C000CE07DE07ED07ED07ED07ED07ED07ED07BD
:1001D000ED07ED07ED07ED07ED07ED07ED07ED077F
:1001E000ED07ED07ED07ED07ED07ED07ED07ED076F
:1001F000ED07ED07ED07ED07ED07ED07AE07BE07CD
:10020000CE07DE070060007100138E007100798058
:100210000079007C00139F0011241FBECFE5D4E0BD
:10022000DEBFCDBFE4E0F2E042E017C0B591A5919A
:1002300035912591059107FD0CC095918591EF01B0
:10024000F92FE82F05900D92A217B307D9F7FE01F9
:1002500004C01D92A217B307E1F7E731F40731F7A5
:0C0260000E9442010C943401F894FFCF7E
:10026C00636C69636B203120746F20736574006854
:08027C00683A6D6D3A737300DE
:1002840082E60E94D60805E023E644E063E684E6BD
:100294000E94A1060F2EF5E0CF2EF02D0F2EF3E6CF
:1002A400EF2EF02D04E023E644E66CE672E080E0F5
:1002B4000E944F0781E60E941F090E944D090E9477
:1002C4007B0941E064E081E60E94F50441E065E0D9
:1002D40081E60E94F50441E066E081E60E94F504AF
:1002E40041E067E081E60E94F50441E062E083E6D4
:1002F4000E94F50441E063E083E60E94F5048091E6
:100304007100813041F50F2EF5E0EF2EF02D03E65C
:1003140024E043E664E60E941E080F2EF5E0CF2E8B
:10032400F02D0F2EF3E6EF2EF02D04E023E644E645
:100334006CE672E080E00E944F0780917500809324
:100344007B008091740080937A0080917300809385
:1003540079001092710080917200811136C040E0E2
:1003640064E081E60E94650541E065E081E60E9463
:10037400650541E066E081E60E94650541E067E0CD
:1003840081E60E94650541E062E083E60E9465051E
:1003940041E063E083E60E94650580917B008C3335
:1003A40008F021C160917B008DEC689F812D1124A0
:1003B400869586958695880F982F990F990F890FA2
:1003C400681B81E60E947C080EC180917200813016
:1003D40081F541E064E081E60E94650540E065E066
:1003E40081E60E94650541E066E081E60E946505BC
:1003F40041E067E081E60E94650541E062E083E652
:100404000E94650541E063E083E60E9465058091F2
:100414007B008C3308F0E7C080917B006DEC869FF5
:10042400612D112466956695669581E60E947C0887
:10043400DAC0809172008230B1F541E064E081E677
:100444000E94650541E065E081E60E94650540E0A3
:1004540066E081E60E94650541E067E081E60E946E
:10046400650541E062E083E60E94650541E063E0E2
:1004740083E60E94650580917A008C3308F0B3C04E
:1004840060917A008DEC689F812D11248695869564
:100494008695880F982F990F990F890F681B81E60D
:1004A4000E947C08A0C080917200833081F541E0F5
:1004B40064E081E60E94650541E065E081E60E9412
:1004C400650541E066E081E60E94650540E067E07D
:1004D40081E60E94650541E062E083E60E946505CD
:1004E40041E063E083E60E94650580917A008C33E5
:1004F40008F079C080917A006DEC869F612D1124FB
:1005040066956695669581E60E947C086CC080912C
:1005140072008430B1F541E064E081E60E94650533
:1005240041E065E081E60E94650541E066E081E620
:100534000E94650541E067E081E60E94650540E0B0
:1005440062E083E60E94650541E063E083E60E9481
:100554006505809179008D3008F045C0609179007F
:100564008DEC689F812D1124869586958695880F3C
:10057400982F990F990F890F681B81E60E947C08B8
:1005840032C080917200853071F541E064E081E60B
:100594000E94650541E065E081E60E94650541E051
:1005A40066E081E60E94650541E067E081E60E941D
:1005B400650541E062E083E60E94650540E063E092
:1005C40083E60E946505809179008D3060F4809106
:1005D40079006DEC869F612D11246695669566956C
:1005E40081E60E947C0882E60E943B06813309F082
:1005F40086CE80917100811182CE0F2EF5E0EF2E10
:10060400F02D03E624E043E664E681E00E941E0840
:100614000F2EF5E0CF2EF02D0F2EF3E6EF2EF02D5A
:1006240004E023E644E66BE772E080E00E944F07B3
:1006340082E60E943B068F3FD9F70F2EF5E0CF2EBE
:10064400F02D0F2EF3E6EF2EF02D04E023E644E622
:1006540061E081E00E94A908BAC1809170008530F0
:10066400F1F582E60E943B068033C8F182E60E94DF
:100674003B068233A0F582E60E943B0690E0C097D9
:10068400880F982F990F990F890F80937900809183
:10069400790080937600809179006DEC869F612DBE
:1006A400112466956695669570E080E090E00F2EC3
:1006B400F5E0CF2EF02D0F2EF3E6EF2EF02D04E013
:1006C40023E644E60E94F90682E60E943B068F3F39
:1006D400D9F78091700081508093700078C1809127
:1006E4007000843009F052C082E60E943B068033D9
:1006F40008F44CC082E60E943B06833308F046C0EF
:1007040082E60E943B0690917600890F8053809385
:1007140079008091790080937300609179008DEC69
:10072400689F812D1124869586958695880F982F2C
:10073400990F990F890F681B70E080E090E00F2EED
:10074400F5E0CF2EF02D0F2EF3E6EF2EF02D04E082
:1007540023E644E60E94F90682E60E943B068F3FA8
:10076400D9F7809170008150809370000F2EF5E0CE
:10077400CF2EF02D0F2EF3E6EF2EF02D04E023E61E
:1007840044E664E081E00E94A90821C180917000E0
:100794008330F1F582E60E943B068033C8F182E69D
:1007A4000E943B068633A0F582E60E943B0690E059
:1007B400C097880F982F990F990F890F80937A000B
:1007C40080917A008093770080917A006DEC869F07
:1007D400612D112466956695669570E080E090E041
:1007E4000F2EF5E0CF2EF02D0F2EF3E6EF2EF02D89
:1007F40004E023E644E60E94F90682E60E943B06F2
:100804008F3FD9F780917000815080937000DFC0D2
:1008140080917000823009F052C082E60E943B064B
:10082400803308F44CC082E60E943B068A3308F009
:1008340046C082E60E943B0690917700890F805360
:1008440080937A0080917A008093740060917A009A
:100854008DEC689F812D1124869586958695880F49
:10086400982F990F990F890F681B70E080E090E032
:100874000F2EF5E0CF2EF02D0F2EF3E6EF2EF02DF8
:1008840004E023E644E60E94F90682E60E943B0661
:100894008F3FD9F7809170008150809370000F2EA4
:1008A400F5E0CF2EF02D0F2EF3E6EF2EF02D04E021
:1008B40023E644E667E081E00E94A90888C08091AD
:1008C40070008130F1F582E60E943B068033C8F166
:1008D40082E60E943B068633A0F582E60E943B0630
:1008E40090E0C097880F982F990F990F890F8093E4
:1008F4007B0080917B008093780080917B006DEC7D
:10090400869F612D112466956695669570E080E05A
:1009140090E00F2EF5E0CF2EF02D0F2EF3E6EF2E04
:10092400F02D04E023E644E60E94F90682E60E94E4
:100934003B068F3FD9F780917000815080937000FF
:1009440046C080917000811142C082E60E943B063D
:100954008033E8F182E60E943B068A33C0F582E6E2
:100964000E943B0690917800890F805380937B000E
:1009740080917B008093750060917B008DEC689F73
:10098400812D1124869586958695880F982F990F29
:10099400990F890F681B70E080E090E00F2EF5E05E
:1009A400CF2EF02D0F2EF3E6EF2EF02D04E023E6EC
:1009B40044E60E94F90682E60E943B068F3FD9F77F
:1009C40085E08093700081E08093710098CC82E68A
:1009D4000E943B068D3309F492CC809170008630DE
:0609E40008F43BCE8CCCB0
:1009EA0090E0FC01E154F109E432F10508F067C036
:1009FA00E65DFF4F0C94BF09413059F42AB381E0F8
:100A0A0090E002C0880F991F6A95E2F7822B8ABB91
:100A1A0008952AB381E090E002C0880F991F6A9571
:100A2A00E2F7809582238ABB0895413059F427B3AF
:100A3A0081E090E002C0880F991F6A95E2F7822B45
:100A4A0087BB089527B381E090E002C0880F991F01
:100A5A006A95E2F78095822387BB0895413059F45D
:100A6A0024B381E090E002C0880F991F6A95E2F7EB
:100A7A00822B84BB089524B381E090E002C0880FE2
:100A8A00991F6A95E2F78095822384BB08954130C5
:100A9A0059F421B381E090E002C0880F991F6A954A
:100AAA00E2F7822B81BB089521B381E090E002C076
:100ABA00880F991F6A95E2F78095822381BB089572
:100ACA0090E0FC01E154F109E432F10508F067C055
:100ADA00E25BFF4F0C94BF09413059F42BB381E01C
:100AEA0090E002C0880F991F6A95E2F7822B8BBBB0
:100AFA0008952BB381E090E002C0880F991F6A9590
:100B0A00E2F7809582238BBB0895413059F428B3CC
:100B1A0081E090E002C0880F991F6A95E2F7822B64
:100B2A0088BB089528B381E090E002C0880F991F1E
:100B3A006A95E2F78095822388BB0895413059F47B
:100B4A0025B381E090E002C0880F991F6A95E2F709
:100B5A00822B85BB089525B381E090E002C0880FFF
:100B6A00991F6A95E2F78095822385BB08954130E3
:100B7A0059F422B381E090E002C0880F991F6A9568
:100B8A00E2F7822B82BB089522B381E090E002C093
:100B9A00880F991F6A95E2F78095822382BB089590
:100BAA000F931F93082F10E0F801E154F109E43282
:100BBA00F10508F057C0EE58FF4F0C94BF0949B32E
:100BCA0081E090E09C01062E02C0220F331F0A9496
:100BDA00E2F7842F90E08223932302C095958795AC
:100BEA006A95E2F7982F3EC046B381E090E09C01F7
:100BFA00062E02C0220F331F0A94E2F7842F90E0D8
:100C0A008223932302C0959587956A95E2F7982FD8
:100C1A0029C043B381E090E09C01062E02C0220F56
:100C2A00331F0A94E2F7842F90E08223932302C0B1
:100C3A00959587956A95E2F7982F14C040B381E09D
:100C4A0090E09C01062E02C0220F331F0A94E2F79D
:100C5A00842F90E08223932302C0959587956A9505
:0C0C6A00E2F7982F892F1F910F91089539
:100C7600EF92FF920F931F93CF93DF93CDB7DEB71B
:100C860060970FB6F894DEBF0FBECDBF082F80E188
:100C9600E0E6F0E0DE01119601900D928A95E1F70B
:100CA600EE24EA94F12C39C041E060E0802F0E94E6
:100CB600650541E061E0802F0E94650541E062E044
:100CC600802F0E94650541E063E0802F0E94650544
:100CD60040E06F2D802F0E94650510E018C064E08B
:100CE600610F802F0E94D505811110C0EF2DF0E015
:100CF600EE0FFF1FEE0FFF1F81E090E08C0F9D1F90
:100D0600E80FF91FE10FF11DE08003C01F5F1430EB
:100D160030F39FEFE91204C0F39483E08F1520F6B9
:100D26008E2D60960FB6F894DEBF0FBECDBFDF9155
:0C0D3600CF911F910F91FF90EF90089556
:100D4200DF92EF92FF920F931F93CF93DF93C82FFF
:100D5200D62F142FF22E6FEF0E94910941E0602FDF
:100D62008F2D0E94F50441E0612F8D2F0E94F50422
:100D72008FE493EC0197F1F700C00000E02E0F2DF5
:100D8200212F4D2F6C2F88E30E941E0889EF90E0DF
:100D92000197F1F700C00000212F4D2F6C2F8EE03C
:100DA2000E941E0889EF90E00197F1F700C0000051
:100DB200212F4D2F6C2F81E00E941E0883EC99E0B9
:100DC2000197F1F700C00000212F4D2F6C2F86E014
:100DD2000E941E0889EF90E00197F1F700C0000021
:100DE200DF91CF911F910F91FF90EF90DF900895C7
:100DF200AF92BF92CF92DF92EF92FF920F931F9327
:100E0200CF93DF93CDB7DEB72F970FB6F894DEBF3F
:100E12000FBECDBFA42EB22ED02EFE2C10E02AE0A3
:100E220030E040E050E00E946409E1E0F0E0EC0FC5
:100E3200FD1FE10FF11D17FDFA956083622F732FDD
:100E4200842F952F6115710581059105A1F01F5F12
:100E5200E6CFE1E0F0E0EC0FFD1FE10FF11D17FD21
:100E6200FA958081EC2C0F2D2D2D4B2D6A2D805D56
:100E72000E94EE071150112364F72F960FB6F894D3
:100E8200DEBF0FBECDBFDF91CF911F910F91FF90BB
:0C0E9200EF90DF90CF90BF90AF900895DC
:100E9E006F927F928F92AF92BF92CF92DF92EF922C
:100EAE00FF920F931F93CF93DF933B01882EA42EB7
:100EBE00B22ED02EFE2C1C2DC0E0D0E022C0C031B0
:100ECE00D10549F4C12EEF2C0D2D2B2D4A2D61E0AD
:100EDE0082E00E94A908E12E0F2D2D2D4B2D6A2D9B
:100EEE00F301849187FC80810E94EE078FE493ECDE
:100EFE000197F1F700C000009FEF691A790A890A7D
:100F0E002196F301849187FC80818111D8CF89EFDE
:100F1E0090E00197F1F700C00000DF91CF911F9193
:100F2E000F91FF90EF90DF90CF90BF90AF908F908A
:060F3E007F906F90089502
:100F440090E0FC01E154F109E432F10508F043C0FA
:100F5400E252FF4F0C94BF092AB381E090E002C033
:100F6400880F991F6A95E2F7982F909592239ABB60
:100F74009BB3892B8BBB089527B381E090E002C01B
:100F8400880F991F6A95E2F7982F9095922397BB43
:100F940098B3892B88BB089524B381E090E002C004
:100FA400880F991F6A95E2F7982F9095922394BB26
:100FB40095B3892B85BB089521B381E090E002C0ED
:100FC400880F991F6A95E2F7982F9095922391BB09
:080FD40092B3892B82BB089542
:100FDC00EF92FF920F931F93CF93DF93F82E162F60
:100FEC00C42FD22F802F6E2D41E00E9465056F2DEE
:100FFC00812F0E94A40941E06D2F8C2F0E94650562
:10100C0089EF90E00197F1F700C0000040E06D2FF0
:10101C008C2F0E94650589EF90E00197F1F700C0D5
:10102C000000DF91CF911F910F91FF90EF900895E9
:10103C00EF92FF920F931F93CF93DF93F82E162FFF
:10104C00C42FD22F802F6E2D40E00E9465056F2D8E
:10105C00812F0E94A40941E06D2F8C2F0E94650501
:10106C0089EF90E00197F1F700C0000040E06D2F90
:10107C008C2F0E94650587EB9BE00197F1F700C070
:10108C000000DF91CF911F910F91FF90EF90089589
:10109C001F920F920FB60F9211248F9380917B00A9
:1010AC008F5F80937B0080917B008C33C8F0109213
:1010BC007B0080917A008F5F80937A0080917A0018
:1010CC008C3370F010927A00809179008F5F80934E
:1010DC007900809179008D3018F081E0809379004F
:0C10EC008F910F900FBE0F901F90189571
:1010F800CF93DF93D82FC62F462F417060E00E9410
:1011080065054C2F427050E05595479561E08D2F4D
:101118000E9465054C2F447050E0559547955595AC
:10112800479562E08D2F0E946505C8704C2F50E0EE
:1011380055954795559547955595479563E08D2F56
:0A1148000E946505DF91CF91089524
:10115200CF92EF920F93942F422F202F0E2DEC2C33
:101162003FEF380F323070F4613170F4662371F062
:10117200813019F45FE7560F0AC0823041F45FEB09
:10118200560F05C050E803C050E801C050E8692F6F
:10119200852F0E941E0889EF90E00197F1F700C0A9
:0A11A20000000F91EF90CF90089528
:1011AC00CF93C82F41E060E00E94F50441E061E07C
:1011BC008C2F0E94F50441E062E08C2F0E94F50414
:1011CC0041E063E08C2F0E94F50464E08C2F0E94B8
:1011DC00A20765E08C2F0E94A20766E08C2F0E946C
:0E11EC00A20767E08C2F0E94A207CF91089502
:1011FA00A1E21A2EAA1BBB1BFD010DC0AA1FBB1F11
:10120A00EE1FFF1FA217B307E407F50720F0A21B82
:10121A00B30BE40BF50B661F771F881F991F1A94EF
:10122A0069F760957095809590959B01AC01BD0119
:04123A00CF01089543
:10123E00CF93C82F41E060E00E94F50441E061E0E9
:10124E008C2F0E94F50441E062E08C2F0E94F50481
:0E125E0041E063E08C2F0E94F504CF910895CB
:10126C001F920F920FB60F9211248F9380917200E0
:10127C008F5F8093720080917200863010F0109214
:0E128C0072008F910F900FBE0F901F9018955B
:10129A0085B58F7B85BD85B58F7B85BD85B581601D
:1012AA0085BD85B58D7F85BD85B5846085BD82B5D3
:0E12BA00886082BD789489B7806489BF0895EA
:1012C800052E97FB1EF400940E94B70957FD07D01E
:1012D8000E94FD0807FC03D04EF40C94B709509502
:0E12E8004095309521953F4F4F4F5F4F089531
:1012F60083B78F7B83BF83B7886083BF83B78160E3
:1013060083BF83B78D7F83BF83B7846083BF8EE13E
:0C1316008CBF789489B7826089BF08956D
:1013220090E0FC01E154F109E432F10558F4EA5687
:10133200FF4F0C94BF096ABB089567BB089564BB55
:06134200089561BB08954F
:1013480090E0FC01E154F109E432F10558F4E65467
:10135800FF4F0C94BF096BBB089568BB089565BB2C
:06136800089562BB089528
:10136E0090958095709561957F4F8F4F9F4F089503
:0C137E00EE0FFF1F0590F491E02D099484
:04138A000C940000BF
:10138E003738392B3435362D3132332A63302F3DF1
:01139E000549
:01139F000C41
:0113A0003C10
:0113A1003714
:00000001FF
